{
  "contractName": "StudentStorage",
  "abi": [
    {
      "inputs": [],
      "name": "age",
      "outputs": [
        {
          "internalType": "uint256",
          "name": "",
          "type": "uint256"
        }
      ],
      "stateMutability": "view",
      "type": "function",
      "constant": true
    },
    {
      "inputs": [],
      "name": "username",
      "outputs": [
        {
          "internalType": "string",
          "name": "",
          "type": "string"
        }
      ],
      "stateMutability": "view",
      "type": "function",
      "constant": true
    },
    {
      "inputs": [
        {
          "internalType": "uint256",
          "name": "_age",
          "type": "uint256"
        },
        {
          "internalType": "string",
          "name": "_username",
          "type": "string"
        }
      ],
      "name": "setData",
      "outputs": [],
      "stateMutability": "nonpayable",
      "type": "function"
    },
    {
      "inputs": [],
      "name": "getData",
      "outputs": [
        {
          "internalType": "string",
          "name": "",
          "type": "string"
        },
        {
          "internalType": "uint256",
          "name": "",
          "type": "uint256"
        }
      ],
      "stateMutability": "view",
      "type": "function",
      "constant": true
    }
  ],
  "bytecode": "0x608060405234801561001057600080fd5b50610832806100206000396000f3fe608060405234801561001057600080fd5b5060043610610069576000357c01000000000000000000000000000000000000000000000000000000009004806318562dae1461006e578063262a9dff1461008a5780633bc5de30146100a857806361fac54d146100c7575b600080fd5b610088600480360381019061008391906103c1565b6100e5565b005b610092610100565b60405161009f919061042c565b60405180910390f35b6100b0610106565b6040516100be9291906104c6565b60405180910390f35b6100cf6101a3565b6040516100dc91906104f6565b60405180910390f35b8160008190555080600190816100fb919061072a565b505050565b60005481565b60606000600160005481805461011b90610547565b80601f016020809104026020016040519081016040528092919081815260200182805461014790610547565b80156101945780601f1061016957610100808354040283529160200191610194565b820191906000526020600020905b81548152906001019060200180831161017757829003601f168201915b50505050509150915091509091565b600180546101b090610547565b80601f01602080910402602001604051908101604052809291908181526020018280546101dc90610547565b80156102295780601f106101fe57610100808354040283529160200191610229565b820191906000526020600020905b81548152906001019060200180831161020c57829003601f168201915b505050505081565b6000604051905090565b600080fd5b600080fd5b6000819050919050565b61025881610245565b811461026357600080fd5b50565b6000813590506102758161024f565b92915050565b600080fd5b600080fd5b6000601f19601f8301169050919050565b7f4e487b7100000000000000000000000000000000000000000000000000000000600052604160045260246000fd5b6102ce82610285565b810181811067ffffffffffffffff821117156102ed576102ec610296565b5b80604052505050565b6000610300610231565b905061030c82826102c5565b919050565b600067ffffffffffffffff82111561032c5761032b610296565b5b61033582610285565b9050602081019050919050565b82818337600083830152505050565b600061036461035f84610311565b6102f6565b9050828152602081018484840111156103805761037f610280565b5b61038b848285610342565b509392505050565b600082601f8301126103a8576103a761027b565b5b81356103b8848260208601610351565b91505092915050565b600080604083850312156103d8576103d761023b565b5b60006103e685828601610266565b925050602083013567ffffffffffffffff81111561040757610406610240565b5b61041385828601610393565b9150509250929050565b61042681610245565b82525050565b6000602082019050610441600083018461041d565b92915050565b600081519050919050565b600082825260208201905092915050565b60005b83811015610481578082015181840152602081019050610466565b60008484015250505050565b600061049882610447565b6104a28185610452565b93506104b2818560208601610463565b6104bb81610285565b840191505092915050565b600060408201905081810360008301526104e0818561048d565b90506104ef602083018461041d565b9392505050565b60006020820190508181036000830152610510818461048d565b905092915050565b7f4e487b7100000000000000000000000000000000000000000000000000000000600052602260045260246000fd5b6000600282049050600182168061055f57607f821691505b60208210810361057257610571610518565b5b50919050565b60008190508160005260206000209050919050565b60006020601f8301049050919050565b60008160020a8302905092915050565b6000600883026105dd7fffffffffffffffffffffffffffffffffffffffffffffffffffffffffffffffff8261059d565b6105e7868361059d565b95508019841693508086168417925050509392505050565b6000819050919050565b600061062461061f61061a84610245565b6105ff565b610245565b9050919050565b6000819050919050565b61063e83610609565b61065261064a8261062b565b8484546105ad565b825550505050565b600090565b61066761065a565b610672818484610635565b505050565b5b818110156106965761068b60008261065f565b600181019050610678565b5050565b601f8211156106db576106ac81610578565b6106b58461058d565b810160208510156106c4578190505b6106d86106d08561058d565b830182610677565b50505b505050565b60008160020a8304905092915050565b6000610701600019846008026106e0565b1980831691505092915050565b600061071a83836106f0565b9150826002028217905092915050565b61073382610447565b67ffffffffffffffff81111561074c5761074b610296565b5b6107568254610547565b61076182828561069a565b600060209050601f8311600181146107945760008415610782578287015190505b61078c858261070e565b8655506107f4565b601f1984166107a286610578565b60005b828110156107ca578489015182556001820191506020850194506020810190506107a5565b868310156107e757848901516107e3601f8916826106f0565b8355505b6001600288020188555050505b50505050505056fea2646970667358221220bff77465a9f2d8543520731059fe1610a82fba1ab2f0b76a30d087a7b02ca0d664736f6c63430008110033",
  "immutableReferences": {},
  "source": "// SPDX-License-Identifier: GPL-3.0\npragma solidity >=0.4.16 <0.9.0;\n\ncontract StudentStorage {\n    uint public age;\n    string public username;\n\n    function setData(uint _age, string memory _username) public {\n        age = _age;\n        username = _username;\n    }\n\n    function getData() public view returns (string memory, uint) {\n        return (username, age);\n    }\n}\n",
  "sourcePath": "/Users/ansike/project/self/dapp/hello-truffle/contracts/StudentStorage.sol",
  "compiler": {
    "name": "solc",
    "version": "0.8.17+commit.8df45f5f.Emscripten.clang"
  },
  "schemaVersion": "3.4.11",
  "updatedAt": "2023-02-03T21:42:41.151Z",
  "networkType": "ethereum",
  "devdoc": {
    "kind": "dev",
    "methods": {},
    "version": 1
  },
  "userdoc": {
    "kind": "user",
    "methods": {},
    "version": 1
  }
}