{
  "contractName": "Exchange",
  "abi": [
    {
      "inputs": [
        {
          "internalType": "address",
          "name": "_feeAccount",
          "type": "address"
        },
        {
          "internalType": "uint256",
          "name": "_feePercent",
          "type": "uint256"
        }
      ],
      "stateMutability": "nonpayable",
      "type": "constructor"
    },
    {
      "anonymous": false,
      "inputs": [
        {
          "indexed": false,
          "internalType": "uint256",
          "name": "id",
          "type": "uint256"
        },
        {
          "indexed": false,
          "internalType": "address",
          "name": "user",
          "type": "address"
        },
        {
          "indexed": false,
          "internalType": "address",
          "name": "token",
          "type": "address"
        },
        {
          "indexed": false,
          "internalType": "uint256",
          "name": "amount",
          "type": "uint256"
        },
        {
          "indexed": false,
          "internalType": "address",
          "name": "exchangeToken",
          "type": "address"
        },
        {
          "indexed": false,
          "internalType": "uint256",
          "name": "exchangeAmount",
          "type": "uint256"
        },
        {
          "indexed": false,
          "internalType": "uint256",
          "name": "timestamp",
          "type": "uint256"
        }
      ],
      "name": "CancleOrderEvent",
      "type": "event"
    },
    {
      "anonymous": false,
      "inputs": [
        {
          "indexed": false,
          "internalType": "address",
          "name": "token",
          "type": "address"
        },
        {
          "indexed": false,
          "internalType": "address",
          "name": "user",
          "type": "address"
        },
        {
          "indexed": false,
          "internalType": "uint256",
          "name": "amount",
          "type": "uint256"
        },
        {
          "indexed": false,
          "internalType": "uint256",
          "name": "balance",
          "type": "uint256"
        }
      ],
      "name": "Deposit",
      "type": "event"
    },
    {
      "anonymous": false,
      "inputs": [
        {
          "indexed": false,
          "internalType": "uint256",
          "name": "id",
          "type": "uint256"
        },
        {
          "indexed": false,
          "internalType": "address",
          "name": "user",
          "type": "address"
        },
        {
          "indexed": false,
          "internalType": "address",
          "name": "token",
          "type": "address"
        },
        {
          "indexed": false,
          "internalType": "uint256",
          "name": "amount",
          "type": "uint256"
        },
        {
          "indexed": false,
          "internalType": "address",
          "name": "exchangeToken",
          "type": "address"
        },
        {
          "indexed": false,
          "internalType": "uint256",
          "name": "exchangeAmount",
          "type": "uint256"
        },
        {
          "indexed": false,
          "internalType": "uint256",
          "name": "timestamp",
          "type": "uint256"
        }
      ],
      "name": "FillOrderEvent",
      "type": "event"
    },
    {
      "anonymous": false,
      "inputs": [
        {
          "indexed": false,
          "internalType": "uint256",
          "name": "id",
          "type": "uint256"
        },
        {
          "indexed": false,
          "internalType": "address",
          "name": "user",
          "type": "address"
        },
        {
          "indexed": false,
          "internalType": "address",
          "name": "token",
          "type": "address"
        },
        {
          "indexed": false,
          "internalType": "uint256",
          "name": "amount",
          "type": "uint256"
        },
        {
          "indexed": false,
          "internalType": "address",
          "name": "exchangeToken",
          "type": "address"
        },
        {
          "indexed": false,
          "internalType": "uint256",
          "name": "exchangeAmount",
          "type": "uint256"
        },
        {
          "indexed": false,
          "internalType": "uint256",
          "name": "timestamp",
          "type": "uint256"
        }
      ],
      "name": "OrderEvent",
      "type": "event"
    },
    {
      "anonymous": false,
      "inputs": [
        {
          "indexed": false,
          "internalType": "address",
          "name": "token",
          "type": "address"
        },
        {
          "indexed": false,
          "internalType": "address",
          "name": "user",
          "type": "address"
        },
        {
          "indexed": false,
          "internalType": "uint256",
          "name": "amount",
          "type": "uint256"
        },
        {
          "indexed": false,
          "internalType": "uint256",
          "name": "balance",
          "type": "uint256"
        }
      ],
      "name": "Withdraw",
      "type": "event"
    },
    {
      "inputs": [
        {
          "internalType": "uint256",
          "name": "",
          "type": "uint256"
        }
      ],
      "name": "cancleOrders",
      "outputs": [
        {
          "internalType": "bool",
          "name": "",
          "type": "bool"
        }
      ],
      "stateMutability": "view",
      "type": "function",
      "constant": true
    },
    {
      "inputs": [],
      "name": "feeAccount",
      "outputs": [
        {
          "internalType": "address",
          "name": "",
          "type": "address"
        }
      ],
      "stateMutability": "view",
      "type": "function",
      "constant": true
    },
    {
      "inputs": [],
      "name": "feePercent",
      "outputs": [
        {
          "internalType": "uint256",
          "name": "",
          "type": "uint256"
        }
      ],
      "stateMutability": "view",
      "type": "function",
      "constant": true
    },
    {
      "inputs": [
        {
          "internalType": "uint256",
          "name": "",
          "type": "uint256"
        }
      ],
      "name": "fillOrders",
      "outputs": [
        {
          "internalType": "bool",
          "name": "",
          "type": "bool"
        }
      ],
      "stateMutability": "view",
      "type": "function",
      "constant": true
    },
    {
      "inputs": [],
      "name": "orderCount",
      "outputs": [
        {
          "internalType": "uint256",
          "name": "",
          "type": "uint256"
        }
      ],
      "stateMutability": "view",
      "type": "function",
      "constant": true
    },
    {
      "inputs": [
        {
          "internalType": "uint256",
          "name": "",
          "type": "uint256"
        }
      ],
      "name": "orders",
      "outputs": [
        {
          "internalType": "uint256",
          "name": "id",
          "type": "uint256"
        },
        {
          "internalType": "address",
          "name": "user",
          "type": "address"
        },
        {
          "internalType": "address",
          "name": "token",
          "type": "address"
        },
        {
          "internalType": "uint256",
          "name": "amount",
          "type": "uint256"
        },
        {
          "internalType": "address",
          "name": "exchangeToken",
          "type": "address"
        },
        {
          "internalType": "uint256",
          "name": "exchangeAmount",
          "type": "uint256"
        },
        {
          "internalType": "uint256",
          "name": "timestamp",
          "type": "uint256"
        }
      ],
      "stateMutability": "view",
      "type": "function",
      "constant": true
    },
    {
      "inputs": [
        {
          "internalType": "address",
          "name": "",
          "type": "address"
        },
        {
          "internalType": "address",
          "name": "",
          "type": "address"
        }
      ],
      "name": "tokens",
      "outputs": [
        {
          "internalType": "uint256",
          "name": "",
          "type": "uint256"
        }
      ],
      "stateMutability": "view",
      "type": "function",
      "constant": true
    },
    {
      "inputs": [],
      "name": "depositEther",
      "outputs": [],
      "stateMutability": "payable",
      "type": "function",
      "payable": true
    },
    {
      "inputs": [
        {
          "internalType": "address",
          "name": "_token",
          "type": "address"
        },
        {
          "internalType": "uint256",
          "name": "_amount",
          "type": "uint256"
        }
      ],
      "name": "depositToken",
      "outputs": [],
      "stateMutability": "nonpayable",
      "type": "function"
    },
    {
      "inputs": [
        {
          "internalType": "uint256",
          "name": "_amount",
          "type": "uint256"
        }
      ],
      "name": "withdrawEther",
      "outputs": [],
      "stateMutability": "nonpayable",
      "type": "function"
    },
    {
      "inputs": [
        {
          "internalType": "address",
          "name": "_token",
          "type": "address"
        },
        {
          "internalType": "uint256",
          "name": "_amount",
          "type": "uint256"
        }
      ],
      "name": "withdrawToken",
      "outputs": [],
      "stateMutability": "nonpayable",
      "type": "function"
    },
    {
      "inputs": [
        {
          "internalType": "address",
          "name": "_token",
          "type": "address"
        },
        {
          "internalType": "uint256",
          "name": "_amount",
          "type": "uint256"
        },
        {
          "internalType": "address",
          "name": "_exchangeToken",
          "type": "address"
        },
        {
          "internalType": "uint256",
          "name": "_exchangeAmount",
          "type": "uint256"
        }
      ],
      "name": "makeOrder",
      "outputs": [],
      "stateMutability": "nonpayable",
      "type": "function"
    },
    {
      "inputs": [
        {
          "internalType": "uint256",
          "name": "_id",
          "type": "uint256"
        }
      ],
      "name": "cancleOrder",
      "outputs": [],
      "stateMutability": "nonpayable",
      "type": "function"
    },
    {
      "inputs": [
        {
          "internalType": "uint256",
          "name": "_id",
          "type": "uint256"
        }
      ],
      "name": "fillOrder",
      "outputs": [],
      "stateMutability": "nonpayable",
      "type": "function"
    }
  ],
  "bytecode": "0x60806040523480156200001157600080fd5b50604051620028673803806200286783398181016040528101906200003791906200012b565b816000806101000a81548173ffffffffffffffffffffffffffffffffffffffff021916908373ffffffffffffffffffffffffffffffffffffffff16021790555080600181905550505062000172565b600080fd5b600073ffffffffffffffffffffffffffffffffffffffff82169050919050565b6000620000b8826200008b565b9050919050565b620000ca81620000ab565b8114620000d657600080fd5b50565b600081519050620000ea81620000bf565b92915050565b6000819050919050565b6200010581620000f0565b81146200011157600080fd5b50565b6000815190506200012581620000fa565b92915050565b6000806040838503121562000145576200014462000086565b5b60006200015585828601620000d9565b9250506020620001688582860162000114565b9150509250929050565b6126e580620001826000396000f3fe6080604052600436106100fa576000357c0100000000000000000000000000000000000000000000000000000000900480637fd6f15c1161009c5780639e281a98116100765780639e281a98146102a85780639e98f5c6146102d1578063a85c38ef1461030e578063f406cb8a14610351576100fa565b80637fd6f15c1461024a57806398ea5fca146102755780639a5c90aa1461027f576100fa565b8063508493bc116100d8578063508493bc1461017c57806365e17c9d146101b957806367b830ad146101e457806374a9f31c1461020d576100fa565b80632453ffa8146100ff578063338b5dea1461012a5780633bed33ce14610153575b600080fd5b34801561010b57600080fd5b5061011461037a565b6040516101219190611f52565b60405180910390f35b34801561013657600080fd5b50610151600480360381019061014c9190611ffc565b610380565b005b34801561015f57600080fd5b5061017a6004803603810190610175919061203c565b61062a565b005b34801561018857600080fd5b506101a3600480360381019061019e9190612069565b6108c6565b6040516101b09190611f52565b60405180910390f35b3480156101c557600080fd5b506101ce6108eb565b6040516101db91906120b8565b60405180910390f35b3480156101f057600080fd5b5061020b6004803603810190610206919061203c565b61090f565b005b34801561021957600080fd5b50610234600480360381019061022f919061203c565b6113a6565b60405161024191906120ee565b60405180910390f35b34801561025657600080fd5b5061025f6113c6565b60405161026c9190611f52565b60405180910390f35b61027d6113cc565b005b34801561028b57600080fd5b506102a660048036038101906102a19190612109565b611597565b005b3480156102b457600080fd5b506102cf60048036038101906102ca9190611ffc565b611849565b005b3480156102dd57600080fd5b506102f860048036038101906102f3919061203c565b611b7a565b60405161030591906120ee565b60405180910390f35b34801561031a57600080fd5b506103356004803603810190610330919061203c565b611b9a565b6040516103489796959493929190612170565b60405180910390f35b34801561035d57600080fd5b506103786004803603810190610373919061203c565b611c3c565b005b60065481565b600073ffffffffffffffffffffffffffffffffffffffff168273ffffffffffffffffffffffffffffffffffffffff16036103b957600080fd5b8173ffffffffffffffffffffffffffffffffffffffff166323b872dd3330846040518463ffffffff167c0100000000000000000000000000000000000000000000000000000000028152600401610412939291906121df565b6020604051808303816000875af1158015610431573d6000803e3d6000fd5b505050506040513d601f19601f820116820180604052508101906104559190612242565b61045e57600080fd5b6104ed81600260008573ffffffffffffffffffffffffffffffffffffffff1673ffffffffffffffffffffffffffffffffffffffff16815260200190815260200160002060003373ffffffffffffffffffffffffffffffffffffffff1673ffffffffffffffffffffffffffffffffffffffff16815260200190815260200160002054611ee190919063ffffffff16565b600260008473ffffffffffffffffffffffffffffffffffffffff1673ffffffffffffffffffffffffffffffffffffffff16815260200190815260200160002060003373ffffffffffffffffffffffffffffffffffffffff1673ffffffffffffffffffffffffffffffffffffffff168152602001908152602001600020819055507fdcbc1c05240f31ff3ad067ef1ee35ce4997762752e3a095284754544f4c709d7823383600260008773ffffffffffffffffffffffffffffffffffffffff1673ffffffffffffffffffffffffffffffffffffffff16815260200190815260200160002060003373ffffffffffffffffffffffffffffffffffffffff1673ffffffffffffffffffffffffffffffffffffffff1681526020019081526020016000205460405161061e949392919061226f565b60405180910390a15050565b80600260008073ffffffffffffffffffffffffffffffffffffffff1673ffffffffffffffffffffffffffffffffffffffff16815260200190815260200160002060003373ffffffffffffffffffffffffffffffffffffffff1673ffffffffffffffffffffffffffffffffffffffff1681526020019081526020016000205410156106b357600080fd5b61074281600260008073ffffffffffffffffffffffffffffffffffffffff1673ffffffffffffffffffffffffffffffffffffffff16815260200190815260200160002060003373ffffffffffffffffffffffffffffffffffffffff1673ffffffffffffffffffffffffffffffffffffffff16815260200190815260200160002054611ef790919063ffffffff16565b600260008073ffffffffffffffffffffffffffffffffffffffff1673ffffffffffffffffffffffffffffffffffffffff16815260200190815260200160002060003373ffffffffffffffffffffffffffffffffffffffff1673ffffffffffffffffffffffffffffffffffffffff168152602001908152602001600020819055503373ffffffffffffffffffffffffffffffffffffffff166108fc829081150290604051600060405180830381858888f19350505050158015610808573d6000803e3d6000fd5b507ff341246adaac6f497bc2a656f546ab9e182111d630394f0c57c710a59a2cb56760003383600260008073ffffffffffffffffffffffffffffffffffffffff1673ffffffffffffffffffffffffffffffffffffffff16815260200190815260200160002060003373ffffffffffffffffffffffffffffffffffffffff1673ffffffffffffffffffffffffffffffffffffffff168152602001908152602001600020546040516108bb949392919061226f565b60405180910390a150565b6002602052816000526040600020602052806000526040600020600091509150505481565b60008054906101000a900473ffffffffffffffffffffffffffffffffffffffff1681565b6004600082815260200190815260200160002060009054906101000a900460ff1615610970576040517f08c379a000000000000000000000000000000000000000000000000000000000815260040161096790612311565b60405180910390fd5b6005600082815260200190815260200160002060009054906101000a900460ff16156109d1576040517f08c379a00000000000000000000000000000000000000000000000000000000081526004016109c89061237d565b60405180910390fd5b6000600360008381526020019081526020016000206040518060e0016040529081600082015481526020016001820160009054906101000a900473ffffffffffffffffffffffffffffffffffffffff1673ffffffffffffffffffffffffffffffffffffffff1673ffffffffffffffffffffffffffffffffffffffff1681526020016002820160009054906101000a900473ffffffffffffffffffffffffffffffffffffffff1673ffffffffffffffffffffffffffffffffffffffff1673ffffffffffffffffffffffffffffffffffffffff168152602001600382015481526020016004820160009054906101000a900473ffffffffffffffffffffffffffffffffffffffff1673ffffffffffffffffffffffffffffffffffffffff1673ffffffffffffffffffffffffffffffffffffffff16815260200160058201548152602001600682015481525050905081816000015114610b63576040517f08c379a0000000000000000000000000000000000000000000000000000000008152600401610b5a906123e9565b60405180910390fd5b806060015160026000836040015173ffffffffffffffffffffffffffffffffffffffff1673ffffffffffffffffffffffffffffffffffffffff1681526020019081526020016000206000836020015173ffffffffffffffffffffffffffffffffffffffff1673ffffffffffffffffffffffffffffffffffffffff168152602001908152602001600020541015610c2e576040517f08c379a0000000000000000000000000000000000000000000000000000000008152600401610c2590612455565b60405180910390fd5b6000610c5c6064610c4e6001548560a00151611f0d90919063ffffffff16565b611f2390919063ffffffff16565b9050610c75818360a00151611ee190919063ffffffff16565b60026000846080015173ffffffffffffffffffffffffffffffffffffffff1673ffffffffffffffffffffffffffffffffffffffff16815260200190815260200160002060003373ffffffffffffffffffffffffffffffffffffffff1673ffffffffffffffffffffffffffffffffffffffff168152602001908152602001600020541015610d37576040517f08c379a0000000000000000000000000000000000000000000000000000000008152600401610d2e906124c1565b60405180910390fd5b610dd2826060015160026000856040015173ffffffffffffffffffffffffffffffffffffffff1673ffffffffffffffffffffffffffffffffffffffff1681526020019081526020016000206000856020015173ffffffffffffffffffffffffffffffffffffffff1673ffffffffffffffffffffffffffffffffffffffff16815260200190815260200160002054611ef790919063ffffffff16565b60026000846040015173ffffffffffffffffffffffffffffffffffffffff1673ffffffffffffffffffffffffffffffffffffffff1681526020019081526020016000206000846020015173ffffffffffffffffffffffffffffffffffffffff1673ffffffffffffffffffffffffffffffffffffffff16815260200190815260200160002081905550610ef1826060015160026000856040015173ffffffffffffffffffffffffffffffffffffffff1673ffffffffffffffffffffffffffffffffffffffff16815260200190815260200160002060003373ffffffffffffffffffffffffffffffffffffffff1673ffffffffffffffffffffffffffffffffffffffff16815260200190815260200160002054611ee190919063ffffffff16565b60026000846040015173ffffffffffffffffffffffffffffffffffffffff1673ffffffffffffffffffffffffffffffffffffffff16815260200190815260200160002060003373ffffffffffffffffffffffffffffffffffffffff1673ffffffffffffffffffffffffffffffffffffffff168152602001908152602001600020819055506110108260a0015160026000856080015173ffffffffffffffffffffffffffffffffffffffff1673ffffffffffffffffffffffffffffffffffffffff1681526020019081526020016000206000856020015173ffffffffffffffffffffffffffffffffffffffff1673ffffffffffffffffffffffffffffffffffffffff16815260200190815260200160002054611ee190919063ffffffff16565b60026000846080015173ffffffffffffffffffffffffffffffffffffffff1673ffffffffffffffffffffffffffffffffffffffff1681526020019081526020016000206000846020015173ffffffffffffffffffffffffffffffffffffffff1673ffffffffffffffffffffffffffffffffffffffff168152602001908152602001600020819055506111416110b2828460a00151611ee190919063ffffffff16565b60026000856080015173ffffffffffffffffffffffffffffffffffffffff1673ffffffffffffffffffffffffffffffffffffffff16815260200190815260200160002060003373ffffffffffffffffffffffffffffffffffffffff1673ffffffffffffffffffffffffffffffffffffffff16815260200190815260200160002054611ef790919063ffffffff16565b60026000846080015173ffffffffffffffffffffffffffffffffffffffff1673ffffffffffffffffffffffffffffffffffffffff16815260200190815260200160002060003373ffffffffffffffffffffffffffffffffffffffff1673ffffffffffffffffffffffffffffffffffffffff168152602001908152602001600020819055506112798160026000856080015173ffffffffffffffffffffffffffffffffffffffff1673ffffffffffffffffffffffffffffffffffffffff16815260200190815260200160002060008060009054906101000a900473ffffffffffffffffffffffffffffffffffffffff1673ffffffffffffffffffffffffffffffffffffffff1673ffffffffffffffffffffffffffffffffffffffff16815260200190815260200160002054611ee190919063ffffffff16565b60026000846080015173ffffffffffffffffffffffffffffffffffffffff1673ffffffffffffffffffffffffffffffffffffffff16815260200190815260200160002060008060009054906101000a900473ffffffffffffffffffffffffffffffffffffffff1673ffffffffffffffffffffffffffffffffffffffff1673ffffffffffffffffffffffffffffffffffffffff1681526020019081526020016000208190555060016005600085815260200190815260200160002060006101000a81548160ff0219169083151502179055507fca68813a7966dbf991d143a93ab21cc84b86607f25570ff5add9491f954ba35d8383602001518460400151856060015186608001518760a00151426040516113999796959493929190612170565b60405180910390a1505050565b60046020528060005260406000206000915054906101000a900460ff1681565b60015481565b61145b34600260008073ffffffffffffffffffffffffffffffffffffffff1673ffffffffffffffffffffffffffffffffffffffff16815260200190815260200160002060003373ffffffffffffffffffffffffffffffffffffffff1673ffffffffffffffffffffffffffffffffffffffff16815260200190815260200160002054611ee190919063ffffffff16565b600260008073ffffffffffffffffffffffffffffffffffffffff1673ffffffffffffffffffffffffffffffffffffffff16815260200190815260200160002060003373ffffffffffffffffffffffffffffffffffffffff1673ffffffffffffffffffffffffffffffffffffffff168152602001908152602001600020819055507fdcbc1c05240f31ff3ad067ef1ee35ce4997762752e3a095284754544f4c709d760003334600260008073ffffffffffffffffffffffffffffffffffffffff1673ffffffffffffffffffffffffffffffffffffffff16815260200190815260200160002060003373ffffffffffffffffffffffffffffffffffffffff1673ffffffffffffffffffffffffffffffffffffffff1681526020019081526020016000205460405161158d949392919061226f565b60405180910390a1565b82600260008673ffffffffffffffffffffffffffffffffffffffff1673ffffffffffffffffffffffffffffffffffffffff16815260200190815260200160002060003373ffffffffffffffffffffffffffffffffffffffff1673ffffffffffffffffffffffffffffffffffffffff168152602001908152602001600020541015611656576040517f08c379a000000000000000000000000000000000000000000000000000000000815260040161164d9061252d565b60405180910390fd5b61166c6001600654611ee190919063ffffffff16565b6006819055506040518060e0016040528060065481526020013373ffffffffffffffffffffffffffffffffffffffff1681526020018573ffffffffffffffffffffffffffffffffffffffff1681526020018481526020018373ffffffffffffffffffffffffffffffffffffffff168152602001828152602001428152506003600060065481526020019081526020016000206000820151816000015560208201518160010160006101000a81548173ffffffffffffffffffffffffffffffffffffffff021916908373ffffffffffffffffffffffffffffffffffffffff16021790555060408201518160020160006101000a81548173ffffffffffffffffffffffffffffffffffffffff021916908373ffffffffffffffffffffffffffffffffffffffff1602179055506060820151816003015560808201518160040160006101000a81548173ffffffffffffffffffffffffffffffffffffffff021916908373ffffffffffffffffffffffffffffffffffffffff16021790555060a0820151816005015560c082015181600601559050507f499f3feeeec4f1d1ab397a715c64e9972543f3d133234af8fc3b7844aa310dd260065433868686864260405161183b9796959493929190612170565b60405180910390a150505050565b600073ffffffffffffffffffffffffffffffffffffffff168273ffffffffffffffffffffffffffffffffffffffff160361188257600080fd5b80600260008473ffffffffffffffffffffffffffffffffffffffff1673ffffffffffffffffffffffffffffffffffffffff16815260200190815260200160002060003373ffffffffffffffffffffffffffffffffffffffff1673ffffffffffffffffffffffffffffffffffffffff16815260200190815260200160002054101561190b57600080fd5b61199a81600260008573ffffffffffffffffffffffffffffffffffffffff1673ffffffffffffffffffffffffffffffffffffffff16815260200190815260200160002060003373ffffffffffffffffffffffffffffffffffffffff1673ffffffffffffffffffffffffffffffffffffffff16815260200190815260200160002054611ef790919063ffffffff16565b600260008473ffffffffffffffffffffffffffffffffffffffff1673ffffffffffffffffffffffffffffffffffffffff16815260200190815260200160002060003373ffffffffffffffffffffffffffffffffffffffff1673ffffffffffffffffffffffffffffffffffffffff168152602001908152602001600020819055508173ffffffffffffffffffffffffffffffffffffffff1663a9059cbb33836040518363ffffffff167c0100000000000000000000000000000000000000000000000000000000028152600401611a7192919061254d565b6020604051808303816000875af1158015611a90573d6000803e3d6000fd5b505050506040513d601f19601f82011682018060405250810190611ab49190612242565b611abd57600080fd5b7ff341246adaac6f497bc2a656f546ab9e182111d630394f0c57c710a59a2cb567823383600260008773ffffffffffffffffffffffffffffffffffffffff1673ffffffffffffffffffffffffffffffffffffffff16815260200190815260200160002060003373ffffffffffffffffffffffffffffffffffffffff1673ffffffffffffffffffffffffffffffffffffffff16815260200190815260200160002054604051611b6e949392919061226f565b60405180910390a15050565b60056020528060005260406000206000915054906101000a900460ff1681565b60036020528060005260406000206000915090508060000154908060010160009054906101000a900473ffffffffffffffffffffffffffffffffffffffff16908060020160009054906101000a900473ffffffffffffffffffffffffffffffffffffffff16908060030154908060040160009054906101000a900473ffffffffffffffffffffffffffffffffffffffff16908060050154908060060154905087565b6004600082815260200190815260200160002060009054906101000a900460ff1615611c9d576040517f08c379a0000000000000000000000000000000000000000000000000000000008152600401611c9490612311565b60405180910390fd5b6005600082815260200190815260200160002060009054906101000a900460ff1615611cfe576040517f08c379a0000000000000000000000000000000000000000000000000000000008152600401611cf59061237d565b60405180910390fd5b6000600360008381526020019081526020016000206040518060e0016040529081600082015481526020016001820160009054906101000a900473ffffffffffffffffffffffffffffffffffffffff1673ffffffffffffffffffffffffffffffffffffffff1673ffffffffffffffffffffffffffffffffffffffff1681526020016002820160009054906101000a900473ffffffffffffffffffffffffffffffffffffffff1673ffffffffffffffffffffffffffffffffffffffff1673ffffffffffffffffffffffffffffffffffffffff168152602001600382015481526020016004820160009054906101000a900473ffffffffffffffffffffffffffffffffffffffff1673ffffffffffffffffffffffffffffffffffffffff1673ffffffffffffffffffffffffffffffffffffffff16815260200160058201548152602001600682015481525050905081816000015114611e5a57600080fd5b60016004600084815260200190815260200160002060006101000a81548160ff0219169083151502179055507f9e9ee366fd9217623cc504d271b04652b072d45797e9644a5b7d6d1db09b61ad8282602001518360400151846060015185608001518660a0015142604051611ed59796959493929190612170565b60405180910390a15050565b60008183611eef91906125a5565b905092915050565b60008183611f0591906125d9565b905092915050565b60008183611f1b919061260d565b905092915050565b60008183611f31919061267e565b905092915050565b6000819050919050565b611f4c81611f39565b82525050565b6000602082019050611f676000830184611f43565b92915050565b600080fd5b600073ffffffffffffffffffffffffffffffffffffffff82169050919050565b6000611f9d82611f72565b9050919050565b611fad81611f92565b8114611fb857600080fd5b50565b600081359050611fca81611fa4565b92915050565b611fd981611f39565b8114611fe457600080fd5b50565b600081359050611ff681611fd0565b92915050565b6000806040838503121561201357612012611f6d565b5b600061202185828601611fbb565b925050602061203285828601611fe7565b9150509250929050565b60006020828403121561205257612051611f6d565b5b600061206084828501611fe7565b91505092915050565b600080604083850312156120805761207f611f6d565b5b600061208e85828601611fbb565b925050602061209f85828601611fbb565b9150509250929050565b6120b281611f92565b82525050565b60006020820190506120cd60008301846120a9565b92915050565b60008115159050919050565b6120e8816120d3565b82525050565b600060208201905061210360008301846120df565b92915050565b6000806000806080858703121561212357612122611f6d565b5b600061213187828801611fbb565b945050602061214287828801611fe7565b935050604061215387828801611fbb565b925050606061216487828801611fe7565b91505092959194509250565b600060e082019050612185600083018a611f43565b61219260208301896120a9565b61219f60408301886120a9565b6121ac6060830187611f43565b6121b960808301866120a9565b6121c660a0830185611f43565b6121d360c0830184611f43565b98975050505050505050565b60006060820190506121f460008301866120a9565b61220160208301856120a9565b61220e6040830184611f43565b949350505050565b61221f816120d3565b811461222a57600080fd5b50565b60008151905061223c81612216565b92915050565b60006020828403121561225857612257611f6d565b5b60006122668482850161222d565b91505092915050565b600060808201905061228460008301876120a9565b61229160208301866120a9565b61229e6040830185611f43565b6122ab6060830184611f43565b95945050505050565b600082825260208201905092915050565b7fe8aea2e58d95e5b7b2e58f96e6b6880000000000000000000000000000000000600082015250565b60006122fb600f836122b4565b9150612306826122c5565b602082019050919050565b6000602082019050818103600083015261232a816122ee565b9050919050565b7fe8aea2e58d95e5b7b2e5ae8ce688900000000000000000000000000000000000600082015250565b6000612367600f836122b4565b915061237282612331565b602082019050919050565b600060208201905081810360008301526123968161235a565b9050919050565b7fe8aea2e58d95e4b88de5ad98e59ca80000000000000000000000000000000000600082015250565b60006123d3600f836122b4565b91506123de8261239d565b602082019050919050565b60006020820190508181036000830152612402816123c6565b9050919050565b7fe8aea2e58d95e5889be5bbbae794a8e688b7e4bd99e9a29de4b88de8b6b30000600082015250565b600061243f601e836122b4565b915061244a82612409565b602082019050919050565b6000602082019050818103600083015261246e81612432565b9050919050565b7fe8aea2e58d95e4baa4e69893e794a8e688b7e4bd99e9a29de4b88de8b6b30000600082015250565b60006124ab601e836122b4565b91506124b682612475565b602082019050919050565b600060208201905081810360008301526124da8161249e565b9050919050565b7fe5bd93e5898de4bd99e9a29de4b88de8b6b30000000000000000000000000000600082015250565b60006125176012836122b4565b9150612522826124e1565b602082019050919050565b600060208201905081810360008301526125468161250a565b9050919050565b600060408201905061256260008301856120a9565b61256f6020830184611f43565b9392505050565b7f4e487b7100000000000000000000000000000000000000000000000000000000600052601160045260246000fd5b60006125b082611f39565b91506125bb83611f39565b92508282019050808211156125d3576125d2612576565b5b92915050565b60006125e482611f39565b91506125ef83611f39565b925082820390508181111561260757612606612576565b5b92915050565b600061261882611f39565b915061262383611f39565b925082820261263181611f39565b9150828204841483151761264857612647612576565b5b5092915050565b7f4e487b7100000000000000000000000000000000000000000000000000000000600052601260045260246000fd5b600061268982611f39565b915061269483611f39565b9250826126a4576126a361264f565b5b82820490509291505056fea2646970667358221220f3508d5e9c0d1ad8fb8b2b08fdec2f5549cf82d920acdf800662d27b5e7c5d3f64736f6c63430008110033",
  "immutableReferences": {},
  "source": "// SPDX-License-Identifier: GPL-3.0\npragma solidity >=0.4.16 <0.9.0;\n\nimport \"@openzeppelin/contracts/utils/math/SafeMath.sol\";\nimport \"./AskToken.sol\";\n\n// \ncontract Exchange {\n    using SafeMath for uint256; // uint256add sub\n    address public feeAccount; // \n    uint256 public feePercent; // \n    // =>=>mapping\n    mapping(address => mapping(address => uint256)) public tokens;\n    address constant ETHER = address(0); // \n\n    struct _Order {\n        uint256 id;\n        address user;\n        address token;\n        uint256 amount;\n        address exchangeToken;\n        uint256 exchangeAmount;\n        uint256 timestamp;\n    }\n    mapping(uint256 => _Order) public orders;\n    mapping(uint256 => bool) public cancleOrders;\n    mapping(uint256 => bool) public fillOrders;\n    uint256 public orderCount;\n\n    // \n    event Deposit(address token, address user, uint256 amount, uint256 balance);\n    // \n    event Withdraw(\n        address token,\n        address user,\n        uint256 amount,\n        uint256 balance\n    );\n    event OrderEvent(\n        uint256 id,\n        address user,\n        address token,\n        uint256 amount,\n        address exchangeToken,\n        uint256 exchangeAmount,\n        uint256 timestamp\n    );\n    event CancleOrderEvent(\n        uint256 id,\n        address user,\n        address token,\n        uint256 amount,\n        address exchangeToken,\n        uint256 exchangeAmount,\n        uint256 timestamp\n    );\n    event FillOrderEvent(\n        uint256 id,\n        address user,\n        address token,\n        uint256 amount,\n        address exchangeToken,\n        uint256 exchangeAmount,\n        uint256 timestamp\n    );\n\n    constructor(address _feeAccount, uint256 _feePercent) {\n        feeAccount = _feeAccount;\n        feePercent = _feePercent;\n    }\n\n    // \n    function depositEther() public payable {\n        tokens[ETHER][msg.sender] = tokens[ETHER][msg.sender].add(msg.value);\n        // \n        emit Deposit(ETHER, msg.sender, msg.value, tokens[ETHER][msg.sender]);\n    }\n\n    // token\n    function depositToken(address _token, uint256 _amount) public {\n        // \n        require(_token != ETHER);\n        // \n        require(\n            AskToken(_token).transferFrom(msg.sender, address(this), _amount)\n        );\n        tokens[_token][msg.sender] = tokens[_token][msg.sender].add(_amount);\n        emit Deposit(_token, msg.sender, _amount, tokens[_token][msg.sender]);\n    }\n\n    // \n    function withdrawEther(uint256 _amount) public {\n        require(tokens[ETHER][msg.sender] >= _amount);\n        tokens[ETHER][msg.sender] = tokens[ETHER][msg.sender].sub(_amount);\n        // ETH\n        payable(msg.sender).transfer(_amount);\n        emit Withdraw(ETHER, msg.sender, _amount, tokens[ETHER][msg.sender]);\n    }\n\n    // AskToken\n    function withdrawToken(address _token, uint256 _amount) public {\n        require(_token != ETHER);\n        require(tokens[_token][msg.sender] >= _amount);\n        tokens[_token][msg.sender] = tokens[_token][msg.sender].sub(_amount);\n        require(AskToken(_token).transfer(msg.sender, _amount));\n        emit Withdraw(_token, msg.sender, _amount, tokens[_token][msg.sender]);\n    }\n\n    //  eg: 100 AskToken  1 ETH\n    function makeOrder(\n        address _token,\n        uint256 _amount,\n        address _exchangeToken,\n        uint256 _exchangeAmount\n    ) public {\n        require(tokens[_token][msg.sender] >= _amount, unicode\"\");\n        orderCount = orderCount.add(1);\n        orders[orderCount] = _Order(\n            orderCount,\n            msg.sender,\n            _token,\n            _amount,\n            _exchangeToken,\n            _exchangeAmount,\n            block.timestamp\n        );\n\n        emit OrderEvent(\n            orderCount,\n            msg.sender,\n            _token,\n            _amount,\n            _exchangeToken,\n            _exchangeAmount,\n            block.timestamp\n        );\n    }\n\n    // // \n    function cancleOrder(uint256 _id) public {\n        require(!cancleOrders[_id], unicode\"\");\n        require(!fillOrders[_id], unicode\"\");\n        // order\n        _Order memory myOrder = orders[_id];\n        require(myOrder.id == _id);\n        cancleOrders[_id] = true;\n        emit CancleOrderEvent(\n            _id,\n            myOrder.user,\n            myOrder.token,\n            myOrder.amount,\n            myOrder.exchangeToken,\n            myOrder.exchangeAmount,\n            block.timestamp\n        );\n    }\n\n    // // \n    function fillOrder(uint256 _id) public {\n        require(!cancleOrders[_id], unicode\"\");\n        require(!fillOrders[_id], unicode\"\");\n        _Order memory myOrder = orders[_id];\n        require(myOrder.id == _id, unicode\"\");\n        require(\n            tokens[myOrder.token][myOrder.user] >= myOrder.amount,\n            unicode\"\"\n        );\n        uint256 feeMount = myOrder.exchangeAmount.mul(feePercent).div(100);\n        require(\n            tokens[myOrder.exchangeToken][msg.sender] >=\n                myOrder.exchangeAmount.add(feeMount),\n            unicode\"\"\n        );\n        // \n        tokens[myOrder.token][myOrder.user] = tokens[myOrder.token][\n            myOrder.user\n        ].sub(myOrder.amount);\n        tokens[myOrder.token][msg.sender] = tokens[myOrder.token][msg.sender]\n            .add(myOrder.amount);\n\n        tokens[myOrder.exchangeToken][myOrder.user] = tokens[\n            myOrder.exchangeToken\n        ][myOrder.user].add(myOrder.exchangeAmount);\n        tokens[myOrder.exchangeToken][msg.sender] = tokens[\n            myOrder.exchangeToken\n        ][msg.sender].sub(myOrder.exchangeAmount.add(feeMount));\n\n        tokens[myOrder.exchangeToken][feeAccount] = tokens[\n            myOrder.exchangeToken\n        ][feeAccount].add(feeMount);\n\n        fillOrders[_id] = true;\n        emit FillOrderEvent(\n            _id,\n            myOrder.user,\n            myOrder.token,\n            myOrder.amount,\n            myOrder.exchangeToken,\n            myOrder.exchangeAmount,\n            block.timestamp\n        );\n    }\n}\n",
  "sourcePath": "/Users/ansike/Documents/GitHub/dapp/ask-token/sol/contracts/Exchange.sol",
  "compiler": {
    "name": "solc",
    "version": "0.8.17+commit.8df45f5f.Emscripten.clang"
  },
  "schemaVersion": "3.4.11",
  "updatedAt": "2023-02-20T13:48:56.337Z",
  "networkType": "ethereum",
  "devdoc": {
    "kind": "dev",
    "methods": {},
    "version": 1
  },
  "userdoc": {
    "kind": "user",
    "methods": {},
    "version": 1
  }
}