{
  "contractName": "Exchange",
  "abi": [
    {
      "inputs": [
        {
          "internalType": "address",
          "name": "_feeAccount",
          "type": "address"
        },
        {
          "internalType": "uint256",
          "name": "_feePercent",
          "type": "uint256"
        }
      ],
      "stateMutability": "nonpayable",
      "type": "constructor"
    },
    {
      "anonymous": false,
      "inputs": [
        {
          "indexed": false,
          "internalType": "uint256",
          "name": "id",
          "type": "uint256"
        },
        {
          "indexed": false,
          "internalType": "address",
          "name": "user",
          "type": "address"
        },
        {
          "indexed": false,
          "internalType": "address",
          "name": "token",
          "type": "address"
        },
        {
          "indexed": false,
          "internalType": "uint256",
          "name": "amount",
          "type": "uint256"
        },
        {
          "indexed": false,
          "internalType": "address",
          "name": "exchangeToken",
          "type": "address"
        },
        {
          "indexed": false,
          "internalType": "uint256",
          "name": "exchangeAmount",
          "type": "uint256"
        },
        {
          "indexed": false,
          "internalType": "uint256",
          "name": "timestamp",
          "type": "uint256"
        }
      ],
      "name": "CancleOrderEvent",
      "type": "event"
    },
    {
      "anonymous": false,
      "inputs": [
        {
          "indexed": false,
          "internalType": "address",
          "name": "token",
          "type": "address"
        },
        {
          "indexed": false,
          "internalType": "address",
          "name": "user",
          "type": "address"
        },
        {
          "indexed": false,
          "internalType": "uint256",
          "name": "amount",
          "type": "uint256"
        },
        {
          "indexed": false,
          "internalType": "uint256",
          "name": "balance",
          "type": "uint256"
        }
      ],
      "name": "Deposit",
      "type": "event"
    },
    {
      "anonymous": false,
      "inputs": [
        {
          "indexed": false,
          "internalType": "uint256",
          "name": "id",
          "type": "uint256"
        },
        {
          "indexed": false,
          "internalType": "address",
          "name": "user",
          "type": "address"
        },
        {
          "indexed": false,
          "internalType": "address",
          "name": "token",
          "type": "address"
        },
        {
          "indexed": false,
          "internalType": "uint256",
          "name": "amount",
          "type": "uint256"
        },
        {
          "indexed": false,
          "internalType": "address",
          "name": "exchangeToken",
          "type": "address"
        },
        {
          "indexed": false,
          "internalType": "uint256",
          "name": "exchangeAmount",
          "type": "uint256"
        },
        {
          "indexed": false,
          "internalType": "uint256",
          "name": "timestamp",
          "type": "uint256"
        }
      ],
      "name": "FillOrderEvent",
      "type": "event"
    },
    {
      "anonymous": false,
      "inputs": [
        {
          "indexed": false,
          "internalType": "uint256",
          "name": "id",
          "type": "uint256"
        },
        {
          "indexed": false,
          "internalType": "address",
          "name": "user",
          "type": "address"
        },
        {
          "indexed": false,
          "internalType": "address",
          "name": "token",
          "type": "address"
        },
        {
          "indexed": false,
          "internalType": "uint256",
          "name": "amount",
          "type": "uint256"
        },
        {
          "indexed": false,
          "internalType": "address",
          "name": "exchangeToken",
          "type": "address"
        },
        {
          "indexed": false,
          "internalType": "uint256",
          "name": "exchangeAmount",
          "type": "uint256"
        },
        {
          "indexed": false,
          "internalType": "uint256",
          "name": "timestamp",
          "type": "uint256"
        }
      ],
      "name": "OrderEvent",
      "type": "event"
    },
    {
      "anonymous": false,
      "inputs": [
        {
          "indexed": false,
          "internalType": "address",
          "name": "token",
          "type": "address"
        },
        {
          "indexed": false,
          "internalType": "address",
          "name": "user",
          "type": "address"
        },
        {
          "indexed": false,
          "internalType": "uint256",
          "name": "amount",
          "type": "uint256"
        },
        {
          "indexed": false,
          "internalType": "uint256",
          "name": "balance",
          "type": "uint256"
        }
      ],
      "name": "Withdraw",
      "type": "event"
    },
    {
      "inputs": [
        {
          "internalType": "uint256",
          "name": "",
          "type": "uint256"
        }
      ],
      "name": "cancleOrders",
      "outputs": [
        {
          "internalType": "bool",
          "name": "",
          "type": "bool"
        }
      ],
      "stateMutability": "view",
      "type": "function"
    },
    {
      "inputs": [],
      "name": "feeAccount",
      "outputs": [
        {
          "internalType": "address",
          "name": "",
          "type": "address"
        }
      ],
      "stateMutability": "view",
      "type": "function"
    },
    {
      "inputs": [],
      "name": "feePercent",
      "outputs": [
        {
          "internalType": "uint256",
          "name": "",
          "type": "uint256"
        }
      ],
      "stateMutability": "view",
      "type": "function"
    },
    {
      "inputs": [
        {
          "internalType": "uint256",
          "name": "",
          "type": "uint256"
        }
      ],
      "name": "fillOrders",
      "outputs": [
        {
          "internalType": "bool",
          "name": "",
          "type": "bool"
        }
      ],
      "stateMutability": "view",
      "type": "function"
    },
    {
      "inputs": [],
      "name": "orderCount",
      "outputs": [
        {
          "internalType": "uint256",
          "name": "",
          "type": "uint256"
        }
      ],
      "stateMutability": "view",
      "type": "function"
    },
    {
      "inputs": [
        {
          "internalType": "uint256",
          "name": "",
          "type": "uint256"
        }
      ],
      "name": "orders",
      "outputs": [
        {
          "internalType": "uint256",
          "name": "id",
          "type": "uint256"
        },
        {
          "internalType": "address",
          "name": "user",
          "type": "address"
        },
        {
          "internalType": "address",
          "name": "token",
          "type": "address"
        },
        {
          "internalType": "uint256",
          "name": "amount",
          "type": "uint256"
        },
        {
          "internalType": "address",
          "name": "exchangeToken",
          "type": "address"
        },
        {
          "internalType": "uint256",
          "name": "exchangeAmount",
          "type": "uint256"
        },
        {
          "internalType": "uint256",
          "name": "timestamp",
          "type": "uint256"
        }
      ],
      "stateMutability": "view",
      "type": "function"
    },
    {
      "inputs": [
        {
          "internalType": "address",
          "name": "",
          "type": "address"
        },
        {
          "internalType": "address",
          "name": "",
          "type": "address"
        }
      ],
      "name": "tokens",
      "outputs": [
        {
          "internalType": "uint256",
          "name": "",
          "type": "uint256"
        }
      ],
      "stateMutability": "view",
      "type": "function"
    },
    {
      "inputs": [],
      "name": "depositEther",
      "outputs": [],
      "stateMutability": "payable",
      "type": "function"
    },
    {
      "inputs": [
        {
          "internalType": "address",
          "name": "_token",
          "type": "address"
        },
        {
          "internalType": "uint256",
          "name": "_amount",
          "type": "uint256"
        }
      ],
      "name": "depositToken",
      "outputs": [],
      "stateMutability": "nonpayable",
      "type": "function"
    },
    {
      "inputs": [
        {
          "internalType": "uint256",
          "name": "_amount",
          "type": "uint256"
        }
      ],
      "name": "withdrawEther",
      "outputs": [],
      "stateMutability": "nonpayable",
      "type": "function"
    },
    {
      "inputs": [
        {
          "internalType": "address",
          "name": "_token",
          "type": "address"
        },
        {
          "internalType": "uint256",
          "name": "_amount",
          "type": "uint256"
        }
      ],
      "name": "withdrawToken",
      "outputs": [],
      "stateMutability": "nonpayable",
      "type": "function"
    },
    {
      "inputs": [
        {
          "internalType": "address",
          "name": "_token",
          "type": "address"
        },
        {
          "internalType": "uint256",
          "name": "_amount",
          "type": "uint256"
        },
        {
          "internalType": "address",
          "name": "_exchangeToken",
          "type": "address"
        },
        {
          "internalType": "uint256",
          "name": "_exchangeAmount",
          "type": "uint256"
        }
      ],
      "name": "makeOrder",
      "outputs": [],
      "stateMutability": "nonpayable",
      "type": "function"
    },
    {
      "inputs": [
        {
          "internalType": "uint256",
          "name": "_id",
          "type": "uint256"
        }
      ],
      "name": "cancleOrder",
      "outputs": [],
      "stateMutability": "nonpayable",
      "type": "function"
    },
    {
      "inputs": [
        {
          "internalType": "uint256",
          "name": "_id",
          "type": "uint256"
        }
      ],
      "name": "fillOrder",
      "outputs": [],
      "stateMutability": "nonpayable",
      "type": "function"
    }
  ],
  "bytecode": "0x60806040523480156200001157600080fd5b50604051620025693803806200256983398181016040528101906200003791906200012b565b816000806101000a81548173ffffffffffffffffffffffffffffffffffffffff021916908373ffffffffffffffffffffffffffffffffffffffff16021790555080600181905550505062000172565b600080fd5b600073ffffffffffffffffffffffffffffffffffffffff82169050919050565b6000620000b8826200008b565b9050919050565b620000ca81620000ab565b8114620000d657600080fd5b50565b600081519050620000ea81620000bf565b92915050565b6000819050919050565b6200010581620000f0565b81146200011157600080fd5b50565b6000815190506200012581620000fa565b92915050565b6000806040838503121562000145576200014462000086565b5b60006200015585828601620000d9565b9250506020620001688582860162000114565b9150509250929050565b6123e780620001826000396000f3fe6080604052600436106100fa576000357c0100000000000000000000000000000000000000000000000000000000900480637fd6f15c1161009c5780639e281a98116100765780639e281a98146102a85780639e98f5c6146102d1578063a85c38ef1461030e578063f406cb8a14610351576100fa565b80637fd6f15c1461024a57806398ea5fca146102755780639a5c90aa1461027f576100fa565b8063508493bc116100d8578063508493bc1461017c57806365e17c9d146101b957806367b830ad146101e457806374a9f31c1461020d576100fa565b80632453ffa8146100ff578063338b5dea1461012a5780633bed33ce14610153575b600080fd5b34801561010b57600080fd5b5061011461037a565b6040516101219190611d98565b60405180910390f35b34801561013657600080fd5b50610151600480360381019061014c9190611e42565b610380565b005b34801561015f57600080fd5b5061017a60048036038101906101759190611e82565b61062a565b005b34801561018857600080fd5b506101a3600480360381019061019e9190611eaf565b6108c6565b6040516101b09190611d98565b60405180910390f35b3480156101c557600080fd5b506101ce6108eb565b6040516101db9190611efe565b60405180910390f35b3480156101f057600080fd5b5061020b60048036038101906102069190611e82565b61090f565b005b34801561021957600080fd5b50610234600480360381019061022f9190611e82565b6112ae565b6040516102419190611f34565b60405180910390f35b34801561025657600080fd5b5061025f6112ce565b60405161026c9190611d98565b60405180910390f35b61027d6112d4565b005b34801561028b57600080fd5b506102a660048036038101906102a19190611f4f565b61149f565b005b3480156102b457600080fd5b506102cf60048036038101906102ca9190611e42565b611751565b005b3480156102dd57600080fd5b506102f860048036038101906102f39190611e82565b611a82565b6040516103059190611f34565b60405180910390f35b34801561031a57600080fd5b5061033560048036038101906103309190611e82565b611aa2565b6040516103489796959493929190611fb6565b60405180910390f35b34801561035d57600080fd5b5061037860048036038101906103739190611e82565b611b44565b005b60065481565b600073ffffffffffffffffffffffffffffffffffffffff168273ffffffffffffffffffffffffffffffffffffffff16036103b957600080fd5b8173ffffffffffffffffffffffffffffffffffffffff166323b872dd3330846040518463ffffffff167c010000000000000000000000000000000000000000000000000000000002815260040161041293929190612025565b6020604051808303816000875af1158015610431573d6000803e3d6000fd5b505050506040513d601f19601f820116820180604052508101906104559190612088565b61045e57600080fd5b6104ed81600260008573ffffffffffffffffffffffffffffffffffffffff1673ffffffffffffffffffffffffffffffffffffffff16815260200190815260200160002060003373ffffffffffffffffffffffffffffffffffffffff1673ffffffffffffffffffffffffffffffffffffffff16815260200190815260200160002054611d2790919063ffffffff16565b600260008473ffffffffffffffffffffffffffffffffffffffff1673ffffffffffffffffffffffffffffffffffffffff16815260200190815260200160002060003373ffffffffffffffffffffffffffffffffffffffff1673ffffffffffffffffffffffffffffffffffffffff168152602001908152602001600020819055507fdcbc1c05240f31ff3ad067ef1ee35ce4997762752e3a095284754544f4c709d7823383600260008773ffffffffffffffffffffffffffffffffffffffff1673ffffffffffffffffffffffffffffffffffffffff16815260200190815260200160002060003373ffffffffffffffffffffffffffffffffffffffff1673ffffffffffffffffffffffffffffffffffffffff1681526020019081526020016000205460405161061e94939291906120b5565b60405180910390a15050565b80600260008073ffffffffffffffffffffffffffffffffffffffff1673ffffffffffffffffffffffffffffffffffffffff16815260200190815260200160002060003373ffffffffffffffffffffffffffffffffffffffff1673ffffffffffffffffffffffffffffffffffffffff1681526020019081526020016000205410156106b357600080fd5b61074281600260008073ffffffffffffffffffffffffffffffffffffffff1673ffffffffffffffffffffffffffffffffffffffff16815260200190815260200160002060003373ffffffffffffffffffffffffffffffffffffffff1673ffffffffffffffffffffffffffffffffffffffff16815260200190815260200160002054611d3d90919063ffffffff16565b600260008073ffffffffffffffffffffffffffffffffffffffff1673ffffffffffffffffffffffffffffffffffffffff16815260200190815260200160002060003373ffffffffffffffffffffffffffffffffffffffff1673ffffffffffffffffffffffffffffffffffffffff168152602001908152602001600020819055503373ffffffffffffffffffffffffffffffffffffffff166108fc829081150290604051600060405180830381858888f19350505050158015610808573d6000803e3d6000fd5b507ff341246adaac6f497bc2a656f546ab9e182111d630394f0c57c710a59a2cb56760003383600260008073ffffffffffffffffffffffffffffffffffffffff1673ffffffffffffffffffffffffffffffffffffffff16815260200190815260200160002060003373ffffffffffffffffffffffffffffffffffffffff1673ffffffffffffffffffffffffffffffffffffffff168152602001908152602001600020546040516108bb94939291906120b5565b60405180910390a150565b6002602052816000526040600020602052806000526040600020600091509150505481565b60008054906101000a900473ffffffffffffffffffffffffffffffffffffffff1681565b6000600360008381526020019081526020016000206040518060e0016040529081600082015481526020016001820160009054906101000a900473ffffffffffffffffffffffffffffffffffffffff1673ffffffffffffffffffffffffffffffffffffffff1673ffffffffffffffffffffffffffffffffffffffff1681526020016002820160009054906101000a900473ffffffffffffffffffffffffffffffffffffffff1673ffffffffffffffffffffffffffffffffffffffff1673ffffffffffffffffffffffffffffffffffffffff168152602001600382015481526020016004820160009054906101000a900473ffffffffffffffffffffffffffffffffffffffff1673ffffffffffffffffffffffffffffffffffffffff1673ffffffffffffffffffffffffffffffffffffffff16815260200160058201548152602001600682015481525050905081816000015114610a6b57600080fd5b806060015160026000836040015173ffffffffffffffffffffffffffffffffffffffff1673ffffffffffffffffffffffffffffffffffffffff1681526020019081526020016000206000836020015173ffffffffffffffffffffffffffffffffffffffff1673ffffffffffffffffffffffffffffffffffffffff168152602001908152602001600020541015610b36576040517f08c379a0000000000000000000000000000000000000000000000000000000008152600401610b2d90612157565b60405180910390fd5b6000610b646064610b566001548560a00151611d5390919063ffffffff16565b611d6990919063ffffffff16565b9050610b7d818360a00151611d2790919063ffffffff16565b60026000846080015173ffffffffffffffffffffffffffffffffffffffff1673ffffffffffffffffffffffffffffffffffffffff16815260200190815260200160002060003373ffffffffffffffffffffffffffffffffffffffff1673ffffffffffffffffffffffffffffffffffffffff168152602001908152602001600020541015610c3f576040517f08c379a0000000000000000000000000000000000000000000000000000000008152600401610c36906121c3565b60405180910390fd5b610cda826060015160026000856040015173ffffffffffffffffffffffffffffffffffffffff1673ffffffffffffffffffffffffffffffffffffffff1681526020019081526020016000206000856020015173ffffffffffffffffffffffffffffffffffffffff1673ffffffffffffffffffffffffffffffffffffffff16815260200190815260200160002054611d3d90919063ffffffff16565b60026000846040015173ffffffffffffffffffffffffffffffffffffffff1673ffffffffffffffffffffffffffffffffffffffff1681526020019081526020016000206000846020015173ffffffffffffffffffffffffffffffffffffffff1673ffffffffffffffffffffffffffffffffffffffff16815260200190815260200160002081905550610df9826060015160026000856040015173ffffffffffffffffffffffffffffffffffffffff1673ffffffffffffffffffffffffffffffffffffffff16815260200190815260200160002060003373ffffffffffffffffffffffffffffffffffffffff1673ffffffffffffffffffffffffffffffffffffffff16815260200190815260200160002054611d2790919063ffffffff16565b60026000846040015173ffffffffffffffffffffffffffffffffffffffff1673ffffffffffffffffffffffffffffffffffffffff16815260200190815260200160002060003373ffffffffffffffffffffffffffffffffffffffff1673ffffffffffffffffffffffffffffffffffffffff16815260200190815260200160002081905550610f188260a0015160026000856080015173ffffffffffffffffffffffffffffffffffffffff1673ffffffffffffffffffffffffffffffffffffffff1681526020019081526020016000206000856020015173ffffffffffffffffffffffffffffffffffffffff1673ffffffffffffffffffffffffffffffffffffffff16815260200190815260200160002054611d2790919063ffffffff16565b60026000846080015173ffffffffffffffffffffffffffffffffffffffff1673ffffffffffffffffffffffffffffffffffffffff1681526020019081526020016000206000846020015173ffffffffffffffffffffffffffffffffffffffff1673ffffffffffffffffffffffffffffffffffffffff16815260200190815260200160002081905550611049610fba828460a00151611d2790919063ffffffff16565b60026000856080015173ffffffffffffffffffffffffffffffffffffffff1673ffffffffffffffffffffffffffffffffffffffff16815260200190815260200160002060003373ffffffffffffffffffffffffffffffffffffffff1673ffffffffffffffffffffffffffffffffffffffff16815260200190815260200160002054611d3d90919063ffffffff16565b60026000846080015173ffffffffffffffffffffffffffffffffffffffff1673ffffffffffffffffffffffffffffffffffffffff16815260200190815260200160002060003373ffffffffffffffffffffffffffffffffffffffff1673ffffffffffffffffffffffffffffffffffffffff168152602001908152602001600020819055506111818160026000856080015173ffffffffffffffffffffffffffffffffffffffff1673ffffffffffffffffffffffffffffffffffffffff16815260200190815260200160002060008060009054906101000a900473ffffffffffffffffffffffffffffffffffffffff1673ffffffffffffffffffffffffffffffffffffffff1673ffffffffffffffffffffffffffffffffffffffff16815260200190815260200160002054611d2790919063ffffffff16565b60026000846080015173ffffffffffffffffffffffffffffffffffffffff1673ffffffffffffffffffffffffffffffffffffffff16815260200190815260200160002060008060009054906101000a900473ffffffffffffffffffffffffffffffffffffffff1673ffffffffffffffffffffffffffffffffffffffff1673ffffffffffffffffffffffffffffffffffffffff1681526020019081526020016000208190555060016005600085815260200190815260200160002060006101000a81548160ff0219169083151502179055507fca68813a7966dbf991d143a93ab21cc84b86607f25570ff5add9491f954ba35d8383602001518460400151856060015186608001518760a00151426040516112a19796959493929190611fb6565b60405180910390a1505050565b60046020528060005260406000206000915054906101000a900460ff1681565b60015481565b61136334600260008073ffffffffffffffffffffffffffffffffffffffff1673ffffffffffffffffffffffffffffffffffffffff16815260200190815260200160002060003373ffffffffffffffffffffffffffffffffffffffff1673ffffffffffffffffffffffffffffffffffffffff16815260200190815260200160002054611d2790919063ffffffff16565b600260008073ffffffffffffffffffffffffffffffffffffffff1673ffffffffffffffffffffffffffffffffffffffff16815260200190815260200160002060003373ffffffffffffffffffffffffffffffffffffffff1673ffffffffffffffffffffffffffffffffffffffff168152602001908152602001600020819055507fdcbc1c05240f31ff3ad067ef1ee35ce4997762752e3a095284754544f4c709d760003334600260008073ffffffffffffffffffffffffffffffffffffffff1673ffffffffffffffffffffffffffffffffffffffff16815260200190815260200160002060003373ffffffffffffffffffffffffffffffffffffffff1673ffffffffffffffffffffffffffffffffffffffff1681526020019081526020016000205460405161149594939291906120b5565b60405180910390a1565b82600260008673ffffffffffffffffffffffffffffffffffffffff1673ffffffffffffffffffffffffffffffffffffffff16815260200190815260200160002060003373ffffffffffffffffffffffffffffffffffffffff1673ffffffffffffffffffffffffffffffffffffffff16815260200190815260200160002054101561155e576040517f08c379a00000000000000000000000000000000000000000000000000000000081526004016115559061222f565b60405180910390fd5b6115746001600654611d2790919063ffffffff16565b6006819055506040518060e0016040528060065481526020013373ffffffffffffffffffffffffffffffffffffffff1681526020018573ffffffffffffffffffffffffffffffffffffffff1681526020018481526020018373ffffffffffffffffffffffffffffffffffffffff168152602001828152602001428152506003600060065481526020019081526020016000206000820151816000015560208201518160010160006101000a81548173ffffffffffffffffffffffffffffffffffffffff021916908373ffffffffffffffffffffffffffffffffffffffff16021790555060408201518160020160006101000a81548173ffffffffffffffffffffffffffffffffffffffff021916908373ffffffffffffffffffffffffffffffffffffffff1602179055506060820151816003015560808201518160040160006101000a81548173ffffffffffffffffffffffffffffffffffffffff021916908373ffffffffffffffffffffffffffffffffffffffff16021790555060a0820151816005015560c082015181600601559050507f499f3feeeec4f1d1ab397a715c64e9972543f3d133234af8fc3b7844aa310dd26006543386868686426040516117439796959493929190611fb6565b60405180910390a150505050565b600073ffffffffffffffffffffffffffffffffffffffff168273ffffffffffffffffffffffffffffffffffffffff160361178a57600080fd5b80600260008473ffffffffffffffffffffffffffffffffffffffff1673ffffffffffffffffffffffffffffffffffffffff16815260200190815260200160002060003373ffffffffffffffffffffffffffffffffffffffff1673ffffffffffffffffffffffffffffffffffffffff16815260200190815260200160002054101561181357600080fd5b6118a281600260008573ffffffffffffffffffffffffffffffffffffffff1673ffffffffffffffffffffffffffffffffffffffff16815260200190815260200160002060003373ffffffffffffffffffffffffffffffffffffffff1673ffffffffffffffffffffffffffffffffffffffff16815260200190815260200160002054611d3d90919063ffffffff16565b600260008473ffffffffffffffffffffffffffffffffffffffff1673ffffffffffffffffffffffffffffffffffffffff16815260200190815260200160002060003373ffffffffffffffffffffffffffffffffffffffff1673ffffffffffffffffffffffffffffffffffffffff168152602001908152602001600020819055508173ffffffffffffffffffffffffffffffffffffffff1663a9059cbb33836040518363ffffffff167c010000000000000000000000000000000000000000000000000000000002815260040161197992919061224f565b6020604051808303816000875af1158015611998573d6000803e3d6000fd5b505050506040513d601f19601f820116820180604052508101906119bc9190612088565b6119c557600080fd5b7ff341246adaac6f497bc2a656f546ab9e182111d630394f0c57c710a59a2cb567823383600260008773ffffffffffffffffffffffffffffffffffffffff1673ffffffffffffffffffffffffffffffffffffffff16815260200190815260200160002060003373ffffffffffffffffffffffffffffffffffffffff1673ffffffffffffffffffffffffffffffffffffffff16815260200190815260200160002054604051611a7694939291906120b5565b60405180910390a15050565b60056020528060005260406000206000915054906101000a900460ff1681565b60036020528060005260406000206000915090508060000154908060010160009054906101000a900473ffffffffffffffffffffffffffffffffffffffff16908060020160009054906101000a900473ffffffffffffffffffffffffffffffffffffffff16908060030154908060040160009054906101000a900473ffffffffffffffffffffffffffffffffffffffff16908060050154908060060154905087565b6000600360008381526020019081526020016000206040518060e0016040529081600082015481526020016001820160009054906101000a900473ffffffffffffffffffffffffffffffffffffffff1673ffffffffffffffffffffffffffffffffffffffff1673ffffffffffffffffffffffffffffffffffffffff1681526020016002820160009054906101000a900473ffffffffffffffffffffffffffffffffffffffff1673ffffffffffffffffffffffffffffffffffffffff1673ffffffffffffffffffffffffffffffffffffffff168152602001600382015481526020016004820160009054906101000a900473ffffffffffffffffffffffffffffffffffffffff1673ffffffffffffffffffffffffffffffffffffffff1673ffffffffffffffffffffffffffffffffffffffff16815260200160058201548152602001600682015481525050905081816000015114611ca057600080fd5b60016004600084815260200190815260200160002060006101000a81548160ff0219169083151502179055507f9e9ee366fd9217623cc504d271b04652b072d45797e9644a5b7d6d1db09b61ad8282602001518360400151846060015185608001518660a0015142604051611d1b9796959493929190611fb6565b60405180910390a15050565b60008183611d3591906122a7565b905092915050565b60008183611d4b91906122db565b905092915050565b60008183611d61919061230f565b905092915050565b60008183611d779190612380565b905092915050565b6000819050919050565b611d9281611d7f565b82525050565b6000602082019050611dad6000830184611d89565b92915050565b600080fd5b600073ffffffffffffffffffffffffffffffffffffffff82169050919050565b6000611de382611db8565b9050919050565b611df381611dd8565b8114611dfe57600080fd5b50565b600081359050611e1081611dea565b92915050565b611e1f81611d7f565b8114611e2a57600080fd5b50565b600081359050611e3c81611e16565b92915050565b60008060408385031215611e5957611e58611db3565b5b6000611e6785828601611e01565b9250506020611e7885828601611e2d565b9150509250929050565b600060208284031215611e9857611e97611db3565b5b6000611ea684828501611e2d565b91505092915050565b60008060408385031215611ec657611ec5611db3565b5b6000611ed485828601611e01565b9250506020611ee585828601611e01565b9150509250929050565b611ef881611dd8565b82525050565b6000602082019050611f136000830184611eef565b92915050565b60008115159050919050565b611f2e81611f19565b82525050565b6000602082019050611f496000830184611f25565b92915050565b60008060008060808587031215611f6957611f68611db3565b5b6000611f7787828801611e01565b9450506020611f8887828801611e2d565b9350506040611f9987828801611e01565b9250506060611faa87828801611e2d565b91505092959194509250565b600060e082019050611fcb600083018a611d89565b611fd86020830189611eef565b611fe56040830188611eef565b611ff26060830187611d89565b611fff6080830186611eef565b61200c60a0830185611d89565b61201960c0830184611d89565b98975050505050505050565b600060608201905061203a6000830186611eef565b6120476020830185611eef565b6120546040830184611d89565b949350505050565b61206581611f19565b811461207057600080fd5b50565b6000815190506120828161205c565b92915050565b60006020828403121561209e5761209d611db3565b5b60006120ac84828501612073565b91505092915050565b60006080820190506120ca6000830187611eef565b6120d76020830186611eef565b6120e46040830185611d89565b6120f16060830184611d89565b95945050505050565b600082825260208201905092915050565b7fe8aea2e58d95e5889be5bbbae794a8e688b7e4bd99e9a29de4b88de8b6b30000600082015250565b6000612141601e836120fa565b915061214c8261210b565b602082019050919050565b6000602082019050818103600083015261217081612134565b9050919050565b7fe8aea2e58d95e4baa4e69893e794a8e688b7e4bd99e9a29de4b88de8b6b30000600082015250565b60006121ad601e836120fa565b91506121b882612177565b602082019050919050565b600060208201905081810360008301526121dc816121a0565b9050919050565b7fe5bd93e5898de4bd99e9a29de4b88de8b6b30000000000000000000000000000600082015250565b60006122196012836120fa565b9150612224826121e3565b602082019050919050565b600060208201905081810360008301526122488161220c565b9050919050565b60006040820190506122646000830185611eef565b6122716020830184611d89565b9392505050565b7f4e487b7100000000000000000000000000000000000000000000000000000000600052601160045260246000fd5b60006122b282611d7f565b91506122bd83611d7f565b92508282019050808211156122d5576122d4612278565b5b92915050565b60006122e682611d7f565b91506122f183611d7f565b925082820390508181111561230957612308612278565b5b92915050565b600061231a82611d7f565b915061232583611d7f565b925082820261233381611d7f565b9150828204841483151761234a57612349612278565b5b5092915050565b7f4e487b7100000000000000000000000000000000000000000000000000000000600052601260045260246000fd5b600061238b82611d7f565b915061239683611d7f565b9250826123a6576123a5612351565b5b82820490509291505056fea264697066735822122027421fa05a9b522f66f4c35c0a6852278c56060d0e55150eb95f0ae778c8174b64736f6c63430008110033",
  "immutableReferences": {},
  "source": "// SPDX-License-Identifier: GPL-3.0\npragma solidity >=0.4.16 <0.9.0;\n\nimport \"@openzeppelin/contracts/utils/math/SafeMath.sol\";\nimport \"./AskToken.sol\";\n\n// \ncontract Exchange {\n    using SafeMath for uint256; // uint256add sub\n    address public feeAccount; // \n    uint256 public feePercent; // \n    // =>=>mapping\n    mapping(address => mapping(address => uint256)) public tokens;\n    address constant ETHER = address(0); // \n\n    struct _Order {\n        uint256 id;\n        address user;\n        address token;\n        uint256 amount;\n        address exchangeToken;\n        uint256 exchangeAmount;\n        uint256 timestamp;\n    }\n    mapping(uint256 => _Order) public orders;\n    mapping(uint256 => bool) public cancleOrders;\n    mapping(uint256 => bool) public fillOrders;\n    uint256 public orderCount;\n\n    // \n    event Deposit(address token, address user, uint256 amount, uint256 balance);\n    // \n    event Withdraw(\n        address token,\n        address user,\n        uint256 amount,\n        uint256 balance\n    );\n    event OrderEvent(\n        uint256 id,\n        address user,\n        address token,\n        uint256 amount,\n        address exchangeToken,\n        uint256 exchangeAmount,\n        uint256 timestamp\n    );\n    event CancleOrderEvent(\n        uint256 id,\n        address user,\n        address token,\n        uint256 amount,\n        address exchangeToken,\n        uint256 exchangeAmount,\n        uint256 timestamp\n    );\n    event FillOrderEvent(\n        uint256 id,\n        address user,\n        address token,\n        uint256 amount,\n        address exchangeToken,\n        uint256 exchangeAmount,\n        uint256 timestamp\n    );\n\n    constructor(address _feeAccount, uint256 _feePercent) {\n        feeAccount = _feeAccount;\n        feePercent = _feePercent;\n    }\n\n    // \n    function depositEther() public payable {\n        tokens[ETHER][msg.sender] = tokens[ETHER][msg.sender].add(msg.value);\n        // \n        emit Deposit(ETHER, msg.sender, msg.value, tokens[ETHER][msg.sender]);\n    }\n\n    // token\n    function depositToken(address _token, uint256 _amount) public {\n        // \n        require(_token != ETHER);\n        // \n        require(\n            AskToken(_token).transferFrom(msg.sender, address(this), _amount)\n        );\n        tokens[_token][msg.sender] = tokens[_token][msg.sender].add(_amount);\n        emit Deposit(_token, msg.sender, _amount, tokens[_token][msg.sender]);\n    }\n\n    // \n    function withdrawEther(uint256 _amount) public {\n        require(tokens[ETHER][msg.sender] >= _amount);\n        tokens[ETHER][msg.sender] = tokens[ETHER][msg.sender].sub(_amount);\n        // ETH\n        payable(msg.sender).transfer(_amount);\n        emit Withdraw(ETHER, msg.sender, _amount, tokens[ETHER][msg.sender]);\n    }\n\n    // AskToken\n    function withdrawToken(address _token, uint256 _amount) public {\n        require(_token != ETHER);\n        require(tokens[_token][msg.sender] >= _amount);\n        tokens[_token][msg.sender] = tokens[_token][msg.sender].sub(_amount);\n        require(AskToken(_token).transfer(msg.sender, _amount));\n        emit Withdraw(_token, msg.sender, _amount, tokens[_token][msg.sender]);\n    }\n\n    //  eg: 100 AskToken  1 ETH\n    function makeOrder(\n        address _token,\n        uint256 _amount,\n        address _exchangeToken,\n        uint256 _exchangeAmount\n    ) public {\n        require(tokens[_token][msg.sender] >= _amount, unicode\"\");\n        orderCount = orderCount.add(1);\n        orders[orderCount] = _Order(\n            orderCount,\n            msg.sender,\n            _token,\n            _amount,\n            _exchangeToken,\n            _exchangeAmount,\n            block.timestamp\n        );\n\n        emit OrderEvent(\n            orderCount,\n            msg.sender,\n            _token,\n            _amount,\n            _exchangeToken,\n            _exchangeAmount,\n            block.timestamp\n        );\n    }\n\n    // // \n    function cancleOrder(uint256 _id) public {\n        // order\n        _Order memory myOrder = orders[_id];\n        require(myOrder.id == _id);\n        cancleOrders[_id] = true;\n        emit CancleOrderEvent(\n            _id,\n            myOrder.user,\n            myOrder.token,\n            myOrder.amount,\n            myOrder.exchangeToken,\n            myOrder.exchangeAmount,\n            block.timestamp\n        );\n    }\n\n    // // \n    function fillOrder(uint256 _id) public {\n        _Order memory myOrder = orders[_id];\n        require(myOrder.id == _id);\n        require(tokens[myOrder.token][myOrder.user] >= myOrder.amount, unicode\"\");\n        uint256 feeMount = myOrder.exchangeAmount.mul(feePercent).div(100);\n        require(tokens[myOrder.exchangeToken][msg.sender] >= myOrder.exchangeAmount.add(feeMount), unicode\"\");\n        // \n        tokens[myOrder.token][myOrder.user] = tokens[myOrder.token][\n            myOrder.user\n        ].sub(myOrder.amount);\n        tokens[myOrder.token][msg.sender] = tokens[myOrder.token][msg.sender]\n            .add(myOrder.amount);\n\n        tokens[myOrder.exchangeToken][myOrder.user] = tokens[\n            myOrder.exchangeToken\n        ][myOrder.user].add(myOrder.exchangeAmount);\n        tokens[myOrder.exchangeToken][msg.sender] = tokens[\n            myOrder.exchangeToken\n        ][msg.sender].sub(myOrder.exchangeAmount.add(feeMount));\n\n        tokens[myOrder.exchangeToken][feeAccount] = tokens[\n            myOrder.exchangeToken\n        ][feeAccount].add(feeMount);\n\n        fillOrders[_id] = true;\n        emit FillOrderEvent(\n            _id,\n            myOrder.user,\n            myOrder.token,\n            myOrder.amount,\n            myOrder.exchangeToken,\n            myOrder.exchangeAmount,\n            block.timestamp\n        );\n    }\n}\n",
  "sourcePath": "/Users/ansike/Documents/GitHub/dapp/ask-token/sol/contracts/Exchange.sol",
  "compiler": {
    "name": "solc",
    "version": "0.8.17+commit.8df45f5f.Emscripten.clang"
  },
  "schemaVersion": "3.4.11",
  "updatedAt": "2023-02-19T06:36:00.153Z",
  "devdoc": {
    "kind": "dev",
    "methods": {},
    "version": 1
  },
  "userdoc": {
    "kind": "user",
    "methods": {},
    "version": 1
  }
}