{
  "contractName": "StudentListStorage",
  "abi": [
    {
      "inputs": [
        {
          "internalType": "uint256",
          "name": "",
          "type": "uint256"
        }
      ],
      "name": "StudentList",
      "outputs": [
        {
          "internalType": "uint256",
          "name": "id",
          "type": "uint256"
        },
        {
          "internalType": "string",
          "name": "name",
          "type": "string"
        },
        {
          "internalType": "uint256",
          "name": "age",
          "type": "uint256"
        },
        {
          "internalType": "address",
          "name": "account",
          "type": "address"
        }
      ],
      "stateMutability": "view",
      "type": "function",
      "constant": true
    },
    {
      "inputs": [
        {
          "internalType": "string",
          "name": "_name",
          "type": "string"
        },
        {
          "internalType": "uint256",
          "name": "_age",
          "type": "uint256"
        }
      ],
      "name": "setList",
      "outputs": [
        {
          "internalType": "uint256",
          "name": "",
          "type": "uint256"
        }
      ],
      "stateMutability": "nonpayable",
      "type": "function"
    },
    {
      "inputs": [
        {
          "internalType": "uint256",
          "name": "index",
          "type": "uint256"
        }
      ],
      "name": "remove",
      "outputs": [
        {
          "components": [
            {
              "internalType": "uint256",
              "name": "id",
              "type": "uint256"
            },
            {
              "internalType": "string",
              "name": "name",
              "type": "string"
            },
            {
              "internalType": "uint256",
              "name": "age",
              "type": "uint256"
            },
            {
              "internalType": "address",
              "name": "account",
              "type": "address"
            }
          ],
          "internalType": "struct StudentListStorage.Student[]",
          "name": "",
          "type": "tuple[]"
        }
      ],
      "stateMutability": "nonpayable",
      "type": "function"
    },
    {
      "inputs": [],
      "name": "getList",
      "outputs": [
        {
          "components": [
            {
              "internalType": "uint256",
              "name": "id",
              "type": "uint256"
            },
            {
              "internalType": "string",
              "name": "name",
              "type": "string"
            },
            {
              "internalType": "uint256",
              "name": "age",
              "type": "uint256"
            },
            {
              "internalType": "address",
              "name": "account",
              "type": "address"
            }
          ],
          "internalType": "struct StudentListStorage.Student[]",
          "name": "",
          "type": "tuple[]"
        }
      ],
      "stateMutability": "view",
      "type": "function",
      "constant": true
    }
  ],
  "bytecode": "0x608060405234801561001057600080fd5b50611354806100206000396000f3fe608060405234801561001057600080fd5b5060043610610069576000357c0100000000000000000000000000000000000000000000000000000000900480634cc822151461006e5780635e04e9cc1461009e578063942b765a146100ce57806395bbc64e146100ec575b600080fd5b6100886004803603810190610083919061094b565b61011f565b6040516100959190610b7d565b60405180910390f35b6100b860048036038101906100b39190610cd4565b61056c565b6040516100c59190610d3f565b60405180910390f35b6100d6610661565b6040516100e39190610b7d565b60405180910390f35b6101066004803603810190610101919061094b565b6107bc565b6040516101169493929190610db3565b60405180910390f35b60606000805490508210610288576000805480602002602001604051908101604052809291908181526020016000905b8282101561027d57838290600052602060002090600402016040518060800160405290816000820154815260200160018201805461018c90610e2e565b80601f01602080910402602001604051908101604052809291908181526020018280546101b890610e2e565b80156102055780601f106101da57610100808354040283529160200191610205565b820191906000526020600020905b8154815290600101906020018083116101e857829003601f168201915b50505050508152602001600282015481526020016003820160009054906101000a900473ffffffffffffffffffffffffffffffffffffffff1673ffffffffffffffffffffffffffffffffffffffff1673ffffffffffffffffffffffffffffffffffffffff16815250508152602001906001019061014f565b505050509050610567565b60008290505b60016000805490506102a09190610e8e565b81101561039d5760006001826102b69190610ec2565b815481106102c7576102c6610ef6565b5b9060005260206000209060040201600082815481106102e9576102e8610ef6565b5b9060005260206000209060040201600082015481600001556001820181600101908161031591906110ed565b50600282015481600201556003820160009054906101000a900473ffffffffffffffffffffffffffffffffffffffff168160030160006101000a81548173ffffffffffffffffffffffffffffffffffffffff021916908373ffffffffffffffffffffffffffffffffffffffff1602179055509050508080610395906111d5565b91505061028e565b5060008054806103b0576103af61121d565b5b60019003818190600052602060002090600402016000808201600090556001820160006103dd91906108a4565b60028201600090556003820160006101000a81549073ffffffffffffffffffffffffffffffffffffffff0219169055505090556000805480602002602001604051908101604052809291908181526020016000905b8282101561056057838290600052602060002090600402016040518060800160405290816000820154815260200160018201805461046f90610e2e565b80601f016020809104026020016040519081016040528092919081815260200182805461049b90610e2e565b80156104e85780601f106104bd576101008083540402835291602001916104e8565b820191906000526020600020905b8154815290600101906020018083116104cb57829003601f168201915b50505050508152602001600282015481526020016003820160009054906101000a900473ffffffffffffffffffffffffffffffffffffffff1673ffffffffffffffffffffffffffffffffffffffff1673ffffffffffffffffffffffffffffffffffffffff168152505081526020019060010190610432565b5050505090505b919050565b6000806040518060800160405280600160008054905061058c9190610ec2565b81526020018581526020018481526020013373ffffffffffffffffffffffffffffffffffffffff1681525090806001815401808255809150506001900390600052602060002090600402016000909190919091506000820151816000015560208201518160010190816105ff919061124c565b506040820151816002015560608201518160030160006101000a81548173ffffffffffffffffffffffffffffffffffffffff021916908373ffffffffffffffffffffffffffffffffffffffff1602179055505050600080549050905092915050565b60606000805480602002602001604051908101604052809291908181526020016000905b828210156107b35783829060005260206000209060040201604051806080016040529081600082015481526020016001820180546106c290610e2e565b80601f01602080910402602001604051908101604052809291908181526020018280546106ee90610e2e565b801561073b5780601f106107105761010080835404028352916020019161073b565b820191906000526020600020905b81548152906001019060200180831161071e57829003601f168201915b50505050508152602001600282015481526020016003820160009054906101000a900473ffffffffffffffffffffffffffffffffffffffff1673ffffffffffffffffffffffffffffffffffffffff1673ffffffffffffffffffffffffffffffffffffffff168152505081526020019060010190610685565b50505050905090565b600081815481106107cc57600080fd5b90600052602060002090600402016000915090508060000154908060010180546107f590610e2e565b80601f016020809104026020016040519081016040528092919081815260200182805461082190610e2e565b801561086e5780601f106108435761010080835404028352916020019161086e565b820191906000526020600020905b81548152906001019060200180831161085157829003601f168201915b5050505050908060020154908060030160009054906101000a900473ffffffffffffffffffffffffffffffffffffffff16905084565b5080546108b090610e2e565b6000825580601f106108c257506108e1565b601f0160209004906000526020600020908101906108e091906108e4565b5b50565b5b808211156108fd5760008160009055506001016108e5565b5090565b6000604051905090565b600080fd5b600080fd5b6000819050919050565b61092881610915565b811461093357600080fd5b50565b6000813590506109458161091f565b92915050565b6000602082840312156109615761096061090b565b5b600061096f84828501610936565b91505092915050565b600081519050919050565b600082825260208201905092915050565b6000819050602082019050919050565b6109ad81610915565b82525050565b600081519050919050565b600082825260208201905092915050565b60005b838110156109ed5780820151818401526020810190506109d2565b60008484015250505050565b6000601f19601f8301169050919050565b6000610a15826109b3565b610a1f81856109be565b9350610a2f8185602086016109cf565b610a38816109f9565b840191505092915050565b600073ffffffffffffffffffffffffffffffffffffffff82169050919050565b6000610a6e82610a43565b9050919050565b610a7e81610a63565b82525050565b6000608083016000830151610a9c60008601826109a4565b5060208301518482036020860152610ab48282610a0a565b9150506040830151610ac960408601826109a4565b506060830151610adc6060860182610a75565b508091505092915050565b6000610af38383610a84565b905092915050565b6000602082019050919050565b6000610b1382610978565b610b1d8185610983565b935083602082028501610b2f85610994565b8060005b85811015610b6b5784840389528151610b4c8582610ae7565b9450610b5783610afb565b925060208a01995050600181019050610b33565b50829750879550505050505092915050565b60006020820190508181036000830152610b978184610b08565b905092915050565b600080fd5b600080fd5b7f4e487b7100000000000000000000000000000000000000000000000000000000600052604160045260246000fd5b610be1826109f9565b810181811067ffffffffffffffff82111715610c0057610bff610ba9565b5b80604052505050565b6000610c13610901565b9050610c1f8282610bd8565b919050565b600067ffffffffffffffff821115610c3f57610c3e610ba9565b5b610c48826109f9565b9050602081019050919050565b82818337600083830152505050565b6000610c77610c7284610c24565b610c09565b905082815260208101848484011115610c9357610c92610ba4565b5b610c9e848285610c55565b509392505050565b600082601f830112610cbb57610cba610b9f565b5b8135610ccb848260208601610c64565b91505092915050565b60008060408385031215610ceb57610cea61090b565b5b600083013567ffffffffffffffff811115610d0957610d08610910565b5b610d1585828601610ca6565b9250506020610d2685828601610936565b9150509250929050565b610d3981610915565b82525050565b6000602082019050610d546000830184610d30565b92915050565b600082825260208201905092915050565b6000610d76826109b3565b610d808185610d5a565b9350610d908185602086016109cf565b610d99816109f9565b840191505092915050565b610dad81610a63565b82525050565b6000608082019050610dc86000830187610d30565b8181036020830152610dda8186610d6b565b9050610de96040830185610d30565b610df66060830184610da4565b95945050505050565b7f4e487b7100000000000000000000000000000000000000000000000000000000600052602260045260246000fd5b60006002820490506001821680610e4657607f821691505b602082108103610e5957610e58610dff565b5b50919050565b7f4e487b7100000000000000000000000000000000000000000000000000000000600052601160045260246000fd5b6000610e9982610915565b9150610ea483610915565b9250828203905081811115610ebc57610ebb610e5f565b5b92915050565b6000610ecd82610915565b9150610ed883610915565b9250828201905080821115610ef057610eef610e5f565b5b92915050565b7f4e487b7100000000000000000000000000000000000000000000000000000000600052603260045260246000fd5b600081549050610f3481610e2e565b9050919050565b60008190508160005260206000209050919050565b60006020601f8301049050919050565b60008160020a8302905092915050565b600060088302610fa07fffffffffffffffffffffffffffffffffffffffffffffffffffffffffffffffff82610f60565b610faa8683610f60565b95508019841693508086168417925050509392505050565b6000819050919050565b6000610fe7610fe2610fdd84610915565b610fc2565b610915565b9050919050565b6000819050919050565b61100183610fcc565b61101561100d82610fee565b848454610f70565b825550505050565b600090565b61102a61101d565b611035818484610ff8565b505050565b5b818110156110595761104e600082611022565b60018101905061103b565b5050565b601f82111561109e5761106f81610f3b565b61107884610f50565b81016020851015611087578190505b61109b61109385610f50565b83018261103a565b50505b505050565b60008160020a8304905092915050565b60006110c4600019846008026110a3565b1980831691505092915050565b60006110dd83836110b3565b9150826002028217905092915050565b8181036110fb5750506111d3565b61110482610f25565b67ffffffffffffffff81111561111d5761111c610ba9565b5b6111278254610e2e565b61113282828561105d565b6000601f831160018114611161576000841561114f578287015490505b61115985826110d1565b8655506111cc565b601f19841661116f87610f3b565b965061117a86610f3b565b60005b828110156111a25784890154825560018201915060018501945060208101905061117d565b868310156111bf57848901546111bb601f8916826110b3565b8355505b6001600288020188555050505b5050505050505b565b60006111e082610915565b91507fffffffffffffffffffffffffffffffffffffffffffffffffffffffffffffffff820361121257611211610e5f565b5b600182019050919050565b7f4e487b7100000000000000000000000000000000000000000000000000000000600052603160045260246000fd5b611255826109b3565b67ffffffffffffffff81111561126e5761126d610ba9565b5b6112788254610e2e565b61128382828561105d565b600060209050601f8311600181146112b657600084156112a4578287015190505b6112ae85826110d1565b865550611316565b601f1984166112c486610f3b565b60005b828110156112ec578489015182556001820191506020850194506020810190506112c7565b868310156113095784890151611305601f8916826110b3565b8355505b6001600288020188555050505b50505050505056fea2646970667358221220bbb817f1c490567dbc3b62e06df9d7875345ac14cdbadfdb2e965f586a871f5664736f6c63430008110033",
  "immutableReferences": {},
  "source": "// SPDX-License-Identifier: GPL-3.0\npragma solidity >=0.4.16 <0.9.0;\n\ncontract StudentListStorage {\n    struct Student {\n        uint256 id;\n        string name;\n        uint256 age;\n        address account;\n    }\n    Student[] public StudentList;\n\n    function setList(string memory _name, uint256 _age)\n        public\n        returns (uint256)\n    {\n        StudentList.push(\n            Student(StudentList.length + 1, _name, _age, msg.sender)\n        );\n        return StudentList.length;\n    }\n\n    function remove(uint256 index) public returns (Student[] memory) {\n        if (index >= StudentList.length) return StudentList;\n        for (uint256 i = index; i < StudentList.length - 1; i++) {\n            StudentList[i] = StudentList[i + 1];\n        }\n        StudentList.pop();\n        return StudentList;\n    }\n\n    function getList() public view returns (Student[] memory) {\n        return StudentList;\n    }\n}\n",
  "sourcePath": "/Users/ansike/project/self/dapp/first-app/sol/contracts/StudentListStorage.sol",
  "compiler": {
    "name": "solc",
    "version": "0.8.17+commit.8df45f5f.Emscripten.clang"
  },
  "schemaVersion": "3.4.11",
  "updatedAt": "2023-02-03T23:13:39.935Z",
  "networkType": "ethereum",
  "devdoc": {
    "kind": "dev",
    "methods": {},
    "version": 1
  },
  "userdoc": {
    "kind": "user",
    "methods": {},
    "version": 1
  }
}